:1000000000040010010100007901000079010000E6
:1000100000000000000000000000000000000000E0
:100020000000000000000000000000007901000056
:1000300000000000000000007901000079010000CC
:1000400079010000790100007901000079010000C8
:1000500079010000790100007901000079010000B8
:1000600079010000790100007901000079010000A8
:100070007901000079010000790100007901000098
:100080007901000079010000790100007901000088
:100090007901000079010000790100007901000078
:1000A0007901000079010000790100007901000068
:1000B0007901000080B500AF0B4B00221A600B4B9A
:1000C00023221A600A4B0A4A126880218A431A6066
:1000D000084B01221A60084B03221A60074B0122C9
:1000E0001A60BD4680BDC046408004400880044080
:1000F000388204404480044070800440748004408E
:1001000080B584B000AFFFF7D5FF164BFB60164BF0
:10011000BB60164A144BD31A7B6007E0BB685A1CBD
:10012000BA60FA68511CF96012781A707B685A1E1E
:100130007A60002BF2D10E4BBB600E4A0C4BD31AE7
:100140007B6004E0BB685A1CBA6000221A707B68AE
:100150005A1E7A60002BF5D100F034F8BD4604B089
:1001600080BDC046F4010000000000100000001037
:10017000000000100000001080B500AFFEE7C04690
:1001800080B500AF064B064A126808210A431A6080
:10019000044B044A126804210A431A60BD4680BD1C
:1001A000C0C10040002000A080B582B000AF7860E0
:1001B000C0467B685A1E7A60002BFAD1BD4602B059
:1001C00080BDC04680B500AFFFF7DAFF074B0122C4
:1001D0001A70074B181CFFF7E7FF044B00221A7038
:1001E000034B181CFFF7E0FFF0E7C046020000A039
:0401F00020A1070043
:00000001FF
